:020000040800F2
:10000000080600200101000805010008070100089A
:10001000090100080B0100080D01000800000000A4
:100020000000000000000000000000000F010008B8
:10003000110100080000000013010008150100086C
:100040001701000817010008170100081701000830
:100050001701000817010008170100081701000820
:100060001701000817010008170100081701000810
:100070001701000817010008170100081701000800
:1000800017010008170100081701000817010008F0
:1000900017010008170100081701000817010008E0
:1000A00017010008170100081701000817010008D0
:1000B000170100087D140008170100081701000847
:1000C00017010008170100081701000817010008B0
:1000D0001701000841150008751600082D170008C3
:1000E000170100081701000817010008DFF80CD0FD
:1000F00000F0C8FB004800478D1D000808060020DE
:1001000005480047FEE7FEE7FEE7FEE7FEE7FEE7FD
:10011000FEE7FEE7FEE7FEE7ED000008F0B480EA48
:100120000102D40F4200B2EB410F02D20246084650
:1001300011464A0042D0C30DDDB2C1F3C752AD1A19
:10014000202D35DAC1F3160141F4000204B1524208
:10015000C5F1200602FA06F12A411044B3EBD05F44
:1001600023D0C4B1012DA0EBC35009DCF0BC4FF08B
:10017000004202EAC352DBB200F5000000F0C8BA48
:10018000400000F1807000EBC350A0F1807040EAA5
:10019000D170490009E0490841EAC071A0EBC350A1
:1001A00000F50000400800EBC350F0BC00F0A7BA17
:1001B0006142012202EB4101001BF6E7F0BC7047EF
:1001C00081F00041AAE780F00040A7E780EA010241
:1001D00010B502F00043400022D04A001FD0010EAB
:1001E00001EB1261C0F35600C2F3560240F4000066
:1001F00042F40002A0FB022000047F39140400D066
:10020000401C50EA124001D44000491EC2B20C0604
:1002100004EBD010401C4008802A02D003E00020EC
:1002200010BD20F00100002900DA0020184310BDA5
:100230002DE9FE4F804681EA0300C00F0C46009076
:1002400021F0004123F00045B8EB0200A94105D29E
:100250004046214690461C460B46024623F000408D
:10026000104347D0270DC7F30A00C3F30A51029089
:10027000401A019040286BDAC3F3130040F4801B4E
:100280000098924620B10023D2EB030A63EB0B0BDC
:1002900001985946C0F14002504600F0FFF9064669
:1002A0000D4650465946019A00F017FA10EB080027
:1002B0006141002487EA115284EAE7731A4340D06F
:1002C000009A62B3019A012A4FEA075215DC001B1B
:1002D00061EB02014FF0004202EA0752CDE9004211
:1002E000001C41F5801132462B4600F04EFA03B057
:1002F000BDE8F08F40462146F9E7001B61EB0201A3
:10030000001C41F5801300185B412018A2F500176E
:1003100047EB030140EAD570B6196D4111E06D0855
:100320004FEA360645EAC0754FEA0752001B61EBFB
:100330000201001C41F5801149084FEA3000001904
:10034000514132462B4603B0BDE8F04F00F00EBAE3
:100350000098012240000023D0EB020263EBE0731F
:10036000009821464FEAE074B8EB000061EB04010D
:10037000E9E783F000435BE781F0004158E72DE9AE
:10038000FE4F81EA030404F0004421F00041009490
:100390004FF0000B23F0004350EA01045ED052EA14
:1003A00003045BD0C3F30A54C1F30A552C44A4F2EE
:1003B000F3340194A0FB0254C1F3130141F4801102
:1003C000C3F3130343F4801301FB024400FB034E09
:1003D000840A970A44EA815447EA8357A4FB0768D2
:1003E00002958D0A05FB07854FEA932C04FB0C54FC
:1003F0002705029D4FEA065847EA1637B5EB080570
:100400006EEB070C870E920E47EA811742EA8312C1
:10041000A7FB0201B6EB0B0164EB00042B0D43EAD2
:100420000C335E1844EB1C50DA465146E7FB0201E0
:10043000C5F313044FEA0B3343EA14534FEA043273
:10044000019C43EA0603A4F10C040294009CCDE94C
:1004500000B400F09AF903B0BDE8F08F0020014627
:10046000F9E72DE9F04D81EA030404F0004B21F097
:10047000004514464FF0000A23F0004150EA0502FF
:1004800020D054EA01021DD0C5F30A570246C5F335
:100490001303C1F31300C1F30A5640F4801543F46B
:1004A0008013A7EB0608101BD64608F2FD3873EB45
:1004B000050002D308F1010801E092185B41B8F190
:1004C000000F03DA00200146BDE8F08D00204FF454
:1004D0008011064684460EE0171B73EB050705D313
:1004E000121B63EB050306434CEA010C49084FEA73
:1004F000300092185B4150EA0107EDD152EA030047
:1005000012D082EA040083EA0501084305D0101BDB
:10051000AB4106D20122002306E000224FF0004347
:1005200002E06FF0010253101AEB06004CEB085189
:1005300010EB0A0041EB0B01BDE8F04D00F016B9DD
:10054000C10F80EAE0700844CA079623002100F03A
:10055000DFB896230022114600F0DAB80EB5C10FBD
:1005600080EAE0700844CA07002140F233438DE876
:100570000E000A460B4600F008F903B000BD00F07B
:10058000004220F00040C10DC0F3160040F400000E
:100590007F2901DA00207047962903DCC1F196011A
:1005A000C84001E096398840002AF4D040427047A4
:1005B00020F00040C10DC0F3160040F400007F2978
:1005C00001DA00207047962903DCC1F19601C8408A
:1005D000704796398840704770B5C1F30A5201F0F0
:1005E00000450024C1F3130140F2FF3341F48011B0
:1005F0009A4201DA002070BD40F233439A42A2F2DF
:10060000334203DC524200F058F800E090402C43A3
:10061000F1D0404270BD00F0004230F000400AD0FE
:10062000C10D01F56071C0F3160042EA0151C20824
:1006300040071143704700200146704701F0004316
:1006400030B421F0004150EA010206D00A0DA2F5B3
:100650006072C1F31301002A02DC30BC0020704735
:10066000440F44EAC104C100E01830BC00EBC250A2
:1006700000F045B8002801DBC0F10040002901DB93
:10068000C1F1004181427047002801DBC0F1004008
:10069000002901DBC1F1004188427047202A04DBB8
:1006A000203A00FA02F1002070479140C2F1200385
:1006B00020FA03F3194390407047202A04DB203AC4
:1006C00021FA02F00021704721FA02F3D040C2F172
:1006D00020029140084319467047202A06DBCB17B9
:1006E000203A41FA02F043EAE07306E041FA02F3ED
:1006F000D040C2F1200291400843194670470029BA
:10070000A8BF7047401C490008BF20F00100704797
:1007100010B4B0FA80FC00FA0CF050EA010404BFF7
:1007200010BC704749B1CCF1200421FA04F411FA4D
:100730000CF118BF012121430843A3EB0C01CB1D91
:100740004FEA00614FEA102042BF002010BC704702
:1007500000EBC35010440029A4BF10BC7047401CDC
:10076000490008BF20F0010010BC704710B5141EEE
:1007700073F1000408DA401C41F1000192185B415A
:100780001A4301D120F0010010BD2DE9F04D924631
:100790009B4611B1B1FA81F202E0B0FA80F2203248
:1007A0009046FFF77BFF04460F4640EA0A0041EA05
:1007B0000B0153465A46084313D0114653EA010031
:1007C00019D0C8F140025046FFF777FF05460E46A4
:1007D000504659464246FFF761FF084305D00120C5
:1007E00004E020463946BDE8F08D0020054346EA86
:1007F000E0762C4337430A986305E40AA0EB08002F
:100800000022FD0A44EA47540A3002D5002001467E
:10081000E9E7010510196941DDE908450019694159
:10082000BDE8F04DA2E770B521F0004303430CD0C2
:10083000C1F30A550024D5EB040564EB0403D61775
:10084000AD1AB34102DB0020014670BD201841EB18
:10085000025170BD30B5041E71F1000404DB4FF08D
:100860000044404264EB0101141E73F1000405DBF7
:100870001C464FF00043524263EB0403994208BF09
:10088000904230BD064C074D06E0E06840F00103A1
:1008900094E8070098471034AC42F6D3FFF72AFCDF
:1008A000B0280008D02800082DE9F04D00231A4692
:1008B0001B1A8A4103DB00200146BDE8F08DC1F31D
:1008C0000A52C1F3130141F480154FF0000BD10718
:1008D00002D100186D41521E0027044640F2FF115C
:1008E000384601EB620A3E468046024600204FF43D
:1008F0008011FFF7E2FEC2197141BB1846EB0100FF
:10090000B4EB030C75EB000C04D3E41A65EB0005A3
:1009100017460E46241908F101006D41804634281F
:10092000E3DDF91946EB0600091BA84103D24FF09D
:10093000FF32134601E0002213461BEB070046EB93
:100940000A51BDE8F04DFFF711BF0FB40CB5069B7F
:10095000049A1A44089B1A440A9BD118CA1701EB3F
:10096000927292100092079B059A1A44099B1A44AE
:100970000B9BD118CA1701EB927292100192DDE91C
:100980000012C0E9001202B05DF814FB10B500F0CF
:10099000D7F94FF4165001F0B9F84FF4E13001F0F7
:1009A0001BF84FF4E13000F02FFA482142F21070AA
:1009B00000F036FC482144F6206000F097FD4FF42B
:1009C0007A7001F0C5F94FF47A7001F0C1F94FF473
:1009D0007A7001F0BDF910BDF0B58FB03C49B1F9A6
:1009E0000000FFF7BBFD064632460B46394800F0D3
:1009F00005FB0446FFF7F0FD00B235490880B1F968
:100A00000200FFF7ABFD064632460B46324800F0C7
:100A1000F5FA0446FFF7E0FD00B22D494880B1F930
:100A20000400FFF79BFD064632460B462A4800F0BD
:100A3000E5FA0446FFF7D0FD00B225498880B1F9F8
:100A40000600FFF78BFD064632460B46234800F0B2
:100A5000D5FA0446FFF7C0FD00B21D49C88008461C
:100A6000016803914068024604900DA800F014F953
:100A70001748016803914068024604900BA800F0F3
:100A8000B9F813480168039140680246049009A828
:100A900000F06CF80E48016803914068024604902B
:100AA00007A800F01FF8DDE90D01CDE90301DDE93C
:100AB0000B01CDE901010A98009005A807A90EC90C
:100AC000FFF743FF0648DDE9051206C00FB0F0BD91
:100AD0001C0000202801002060010020D00100201F
:100AE000140000202DE9F74F88B005461D48046822
:100AF000BDF92490BDF92AA009FB09F004FB04000C
:100B00000AFB1A00610090FBF1F73846FFF718FD69
:100B1000064631463046FFF759FB029009FB09F0C3
:100B2000FFF70EFD01900299FFF74AFB0390FFF7D4
:100B300072FD00220C4BCDE9040101F049F9074692
:100B4000FFF77CFD83463046FFF719FD06905846B7
:100B5000FFF715FD0790DDE90601C5E900010BB0BF
:100B6000BDE8F08F0C0000200000E03F2DE9F74FBA
:100B700088B005461D484468BDF92490BDF926A0FB
:100B800009FB09F004FB04000AFB1A00610090FB5A
:100B9000F1F73846FFF7D4FC064631463046FFF7FA
:100BA00015FB029009FB09F0FFF7CAFC01900299BE
:100BB000FFF706FB0390FFF72EFD00220C4BCDE95B
:100BC000040101F005F90746FFF738FD8346584652
:100BD000FFF7D5FC06903046FFF7D1FC0790DDE922
:100BE0000601C5E900010BB0BDE8F08F0C00002044
:100BF0000000E03F2DE9F74F8CB00546244804681B
:100C000040680990BDF93690BDF938A009FB09F09C
:100C100004FB04000AFB1A00610090FBF1F7384660
:100C2000FFF78EFC064631463046FFF7CFFA0190BB
:100C300009FB09F0FFF784FC00900199FFF7C0FA67
:100C40008346FFF7E8FC0022124BCDE9020101F0D8
:100C5000BFF8074688460998FFF780FC3A464346A6
:100C6000CDE90401FFF785FBCDE90601FFF7E6FCBE
:100C700008903046FFF783FC0A900898FFF77FFC46
:100C80000B90DDE90A01C5E900010FB0BDE8F08F66
:100C90000C0000200000E03F2DE9F74F8CB0054626
:100CA00025480068099024484468BDF93890BDF98A
:100CB0003AA00AFB0AF004FB040009FB19006100DA
:100CC00090FBF1F73846FFF73BFC064631463046CD
:100CD000FFF77CFA01900AFB0AF0FFF731FC009065
:100CE0000199FFF76DFA8346FFF795FC0022134B3D
:100CF000CDE9020101F06CF8074688460998FFF734
:100D00002DFC3A464346CDE90401FFF732FBCDE91D
:100D10000601FFF793FC08900898FFF730FC0A9053
:100D20003046FFF72CFC0B90DDE90A01C5E9000114
:100D30000FB0BDE8F08F00000C0000200000E03F85
:100D40000848806940F00800064988610648006844
:100D500020F0FF00044908600846006840F03300B6
:100D60000860704700100240000C014070B5044656
:100D70002248016A2046FFF77DFC19D81F48016A06
:100D80002046FFF720FA05461D49FFF77DFC09D2F2
:100D90001A48016A2046FFF716FA05461949FFF777
:100DA0000FFA70BD1548016A2046FFF70CFAF8E704
:100DB0001249086A1349FFF7B1F906462146FFF7C1
:100DC000FFF905460E49FFF75FFC0DD20B49086A93
:100DD0000C49FFF7A3F906462146FFF7F1F905464E
:100DE0000849FFF7EDF9DCE70449086A0549FFF710
:100DF00095F905462146FFF7E3F9D2E70001002007
:100E0000000034430000B44370B504462948B0FBE9
:100E1000F4F63046FFF79DFB05462748806940F011
:100E20000800254988610846C06940F48020C861EF
:100E30000846406940F0010048610846006940F4F6
:100E4000802008610846006920F4802008611B4862
:100E5000006820F47F40194908600846006840F4A3
:100E60000B4008602846FFF7A3FB15490880422085
:100E7000144948631248001F88631348C863084632
:100E8000006B43F2810108430E4908630C480C30A3
:100E9000008840F040000A490C31088002232722D4
:100EA0000121002000F062F942F21C000449091DF2
:100EB000088070BD0051250200100240040C014062
:100EC0000848004000000240820000202DE9F04761
:100ED0000446D4E90010FFF773F9A0604FF080409A
:100EE000E168FFF773F98246A168FFF76CF9814664
:100EF0002169FFF713F98046216AFFF767F9064673
:100F0000A168E069FFF762F98146D4E90201FFF7C1
:100F100057F98246A169FFF759F980464946FFF71C
:100F2000FDF807463146FFF7F9F80546E16AFFF795
:100F3000F5F8E062E0682061A068E060616AE06A5C
:100F4000FFF7A2FB02D2606AE06206E0D4E90A1071
:100F5000FFF790FB01D2A06AE062E06ABDE8F0878B
:100F600070B5DDE9044500260949C0E90461C0E91E
:100F700006610021074EC0E90C16C0E90823C0E94C
:100F80000A450160416000268660C66070BD0000B1
:100F90000000F03F000024400CB5002111480A4633
:100FA000114BCDE900101148FFF7DAFF00210D4881
:100FB0000A460D4BCDE900100D48FFF7D1FF002187
:100FC00008480A46084BCDE900100A48FFF7C8FF59
:100FD000002104480A46044BCDE900100648FFF7FB
:100FE000BFFF0CBD00002440000008402801002085
:100FF0006001002098010020D00100202DE9F04F71
:1010000089B0824614461D46DAE900834246DAE991
:1010100004B15846FFF7B3F906460F46DAE90489EA
:10102000C34642464B4658464946FFF7A8F9CDE924
:101030000401DAE90C834246FFF7A1F9CDE9060184
:10104000DAE908834246FFF7F3F8CAE90C01DAE966
:1010500006834246DAE90CB15846FFF790F9CDE92C
:101060000001DAE906834246FFF789F9CDE902017A
:10107000DAE90A834246FFF7DBF8CDE90601DAE94F
:1010800006834246DAE90CB15846FFF778F9CDE914
:101090000401DDE90623FFF7E4F9CAE9020132465B
:1010A0003B4620462946FFF764F9CDE90401DAE919
:1010B00002834246FFF763F932463B46CDE906011B
:1010C000FFF7B6F8CAE90001DAE906834246DAE931
:1010D00002B15846FFF753F90022094BCDE904014C
:1010E000FFF74AF9CDE90601DAE90C834246FFF73A
:1010F00046F9CAE90C01DAE9000109B0BDE8F08F50
:101100000000F03F00B5002015490861C8601420B8
:10111000486100208861C8610846006840F001000D
:101120000860084640680F4908400D494860084675
:1011300000680D4908400A4908600846006820F424
:10114000802008600846406820F4FE0048600020C7
:10115000886000214FF0006000F058F800BD0000EA
:10116000001002400000FFF8FFFFF6FE2DE9F041FD
:101170000746884614461D46284600F033F8C5F158
:10118000040007FA00F60F20284100EA0800064391
:1011900006F00F06E21704EBD2625211920002F140
:1011A000E022D2F800212146E31704EBD3635B1160
:1011B000A4EB431C012303FA0CF31A432046E31764
:1011C00004EBD3635B119B0003F1E023C3F8002120
:1011D0000348005D40EA061001490855BDE8F0816A
:1011E00000E400E00146072323EA01021202054B56
:1011F00018684FF6FF031840034B18431043014B88
:10120000186070470CED00E00000FA05024A0A4041
:101210000243024B1A60704780FFFF1F08ED00E099
:10122000204AD26942F001021E4BDA611A469269E5
:1012300042F008029A611C4A126822F0FF021A4B1F
:101240001A601A46126842F0BB021A60421EDB04A2
:101250009A854A1E1A851A46128B42F060021A833A
:101260001A46128B42F008021A831A46128C42F078
:1012700001021A841A46128B42F4C0421A831A469B
:10128000128B42F400621A831A46128C42F010024A
:101290001A8480221A80D205128842F001021A8034
:1012A000704700000010024000080140002141602A
:1012B0008160C1600161704700B5074807498861D6
:1012C0000748C861002008620648486206488862EC
:1012D0000846FFF7EBFF00BD00003C42C4000020C1
:1012E0005C8F423E00401C4600401CC63EB50025B7
:1012F0005E208DF800000C208DF8010001208DF893
:10130000020005208DF8030013480088000A8DF8BC
:101310000400114800788DF805000F488088000A05
:101320008DF806000C4800798DF80700002409E0CC
:101330001DF80400284485B21DF8040000F08CF963
:10134000601CC4B2072CF3DD280A00F085F9E8B26E
:1013500000F082F93EBD0000140000200022144B72
:101360001A70002809DA42F2107202444FF08043EA
:101370009A8601220F4B1A6005E04FF08043988651
:1013800000220C4B1A6000290ADA42F210720A4459
:101390004FF080431A870122064B1B1D1A6006E09E
:1013A0004FF0804319870022024B1B1D1A607047C3
:1013B0000B0000208081214230B504460025FFF754
:1013C000A1FE1F48006840F480301D49086000BF3E
:1013D0001B480068400C0028FAD04FF48060184980
:1013E0004860A01EC4B20846406840EA8440486095
:1013F0000846406840F4803048601248006840F079
:101400003200104908600E48006840F080700C49B6
:10141000086000BF0A480068400E0028FAD008485B
:10142000406840F002000649486005E00448406812
:10143000C0F3870505F00305022DF7D130BD00008C
:10144000001002400020024010B50120074908703A
:1014500000204FF0804188860887054908600549CB
:10146000C1F884010448FFF721FF10BD0B000020E4
:101470008081214200802142C400002070B51748BD
:10148000008800F0010010B315480078F8B915493C
:101490008868FFF76BFC144948600846FFF716FDA3
:1014A0000546FFF76CF80446201E01DB014600E00C
:1014B0004142B1F5FA7F02DA0B48FFF7F7FE094A1D
:1014C0001268111B074A12681019FFF747FF0348FB
:1014D000008820F001000149088070BD1004004020
:1014E0000B000020F4000020C400002070B5054669
:1014F0000C461148C06940F002000F49C861681EDF
:101500000E490880601E091F08800C48203800889A
:1015100040F0010009492039088002231D220121E1
:101520000846FFF723FE05482C38008840F00100EC
:1015300002492C39088070BD001002402C04004084
:101540003E49098801F0080141B13C49091D09885B
:101550003A49098821F00801384A11803749098839
:1015600001F01001002968D034490C31098821F0BC
:101570002001324A0C32118030490988304A1170FA
:101580002E49091D098811702E49C96DC1F1140138
:1015900011702C49896D21F001012A4A91651421AD
:1015A000D165274909780A2903D10121264A1170FA
:1015B00035E023490978254A127811440A291ED1B9
:1015C000002008E02249095C204A12780244214B9D
:1015D0009954411CC8B21A4909788842F2DB0020AC
:1015E00005E01C49095C1A4A1154411CC8B214494F
:1015F00009788842F5DB0121134A11700FE0104988
:101600000978124A1170002005E01149095C114A5D
:101610001154411CC8B20A4909788842F5DB0949CE
:10162000896D41F00101074A916504490C3109882F
:1016300041F02001014A0C3211807047003801400E
:1016400004000020000002400500002006000020E9
:10165000280000203C00002000BF0549098801F057
:1016600040010029F9D00249091D08807047000097
:10167000003801402248008800F0080050B120489E
:1016800000881F48001D00881D48008820F00800C1
:101690001B4908801A48008800F0100070B31848F1
:1016A0000C30008820F0200015490C3108801448C7
:1016B0000088144908701248001D008808701248FC
:1016C000C06E20F001001049C8660846006FC0F1E6
:1016D00032000C49087001200C49087032200A4978
:1016E00008670846C06E40F00100C86604480C3028
:1016F000008840F0200002490C310880704700004B
:1017000000440040070000200000024008000020C4
:1017100000BF0549098801F040010029F9D00249BC
:10172000091D088070470000004400402DE9F05F6B
:101730009D48008800F0080040B19B48001D0088CB
:101740009948008820F0080097490880964800884A
:1017500000F0100000287DD093480C30008820F065
:10176000200091490C3108808F4800888F4908700B
:101770008D48001D008808708D48406BC0F1420004
:1017800008708B48006B20F00100894908634220F3
:1017900048638648007821287ED101208549087059
:1017A0008548407851285BD18349C978090209B23C
:1017B000814A927841EA0200FEF7D0FE06460022F6
:1017C0007E4BFEF74EFE044600227D4BFEF7D7FD12
:1017D00082467C4A7C4BFEF7D2FD8046FEF72EFF08
:1017E0007A49086074494979090209B2724A127942
:1017F00041EA0200FEF7B2FE804600226F4BFEF780
:1018000030FE064600226E4BFEF7B9FD04466D4AD7
:101810006D4BFEF7B4FD8246FEF710FF6B49486042
:101820006549C979090209B2634A927941EA02001D
:10183000FEF794FE80460022604BFEF712FE06463D
:1018400000225F4BFEF79BFD04465E4A5E4BFEF7AF
:1018500096FD00E0A6E08246FEF7F0FE5B49886058
:101860005548007B522846D15349497B524A927BC6
:1018700041EA0220FEF772FE804600224F4BFEF73F
:10188000F0FD06460022524BFEF779FD0446FEF7B6
:10189000D5FE4E49C86000E076E04749C97B464A1C
:1018A000127C41EA0220FEF759FE80460022434B9B
:1018B000FEF7D7FD06460022454BFEF760FD0446C5
:1018C000FEF7BCFE414908613B49497C3A4A927C9B
:1018D00041EA0220FEF742FE80460022374BFEF727
:1018E000C0FD064600223A4BFEF749FD0446FEF7CE
:1018F000A5FE364948613048C07D532844D12E4961
:10190000097E2D4A527E41EA0220FEF727FE8046DC
:1019100000222A4BFEF7A5FD064600222D4BFEF7BE
:101920002EFD0446FEF78AFE284988612249897EF9
:10193000214AD27E41EA0220FEF710FE064600222E
:101940001E4BFEF78EFD80460022224BFEF717FD50
:101950000446FEF773FE1D49C8611749097F164A00
:10196000527F41EA0220FEF7F9FD80460022134B28
:10197000FEF777FD06460022164BFEF700FD0446F3
:10198000FEF75CFE114908620948006B40F0010057
:101990000749086304480C30008840F020000249E1
:1019A0000C310880BDE8F09F00480040090000208D
:1019B000000002400A000020820000200000E040F9
:1019C000000030409A99999999992340000100208C
:1019D00000409F400080664070B504462948B0FB37
:1019E000F4F63046FEF7B5FD05462748806940F01D
:1019F0000400254988610846C06940F40030C86188
:101A00000846406940F0010048610846006940F41A
:101A1000003008610846006920F4003008611B4866
:101A2000006820F47F40194908600846006840F4C7
:101A30000B4008602846FEF7BBFD154908803220A0
:101A4000144908671248001F48671348886708460A
:101A5000C06E43F2810108430E49C8660C480C3041
:101A6000008840F040000A490C31088002232622F9
:101A700000210846FFF77AFB42F21C000449091DC9
:101A8000088070BD0051250200100240000801408E
:101A900008440040000002405000002010B5002023
:101AA00016490870164800781F2825D11548007C73
:101AB0001449C97B40EA012000B21349088011484B
:101AC000807C1049497C40EA012000B20E494880E0
:101AD0000C48007D0B49C97C40EA012000B20A494C
:101AE00088800848807D0749497D40EA012000B28E
:101AF0000549C880FEF770FF10BD000008000020F7
:101B000007000020500000201C00002070B5044693
:101B10002948B0FBF4F63046FEF71BFD0546274882
:101B2000806940F00400254988610846806940F4D6
:101B3000804088610846406940F0010048610846DD
:101B4000C06840F48040C8600846C06820F4804007
:101B5000C8601B48006820F47F6019490860084687
:101B6000006840F40B6008602846FEF721FD154927
:101B7000088014201449C8651248001F08661348DD
:101B800048660846806D43F2810108430E49886526
:101B90000C480C30008840F040000A490C310880A5
:101BA0000223252200210120FFF7E0FA42F21C0067
:101BB0000449091D088070BD00A24A0400100240BB
:101BC00004080140083801400000024028000020BD
:101BD000490050EAC12018BF04204A0D18BF40F048
:101BE000010040F2FF72B2EB515F08BF40F002000B
:101BF000012808BF052070472DE9F0414F1E00EB7A
:101C0000C7010446D1E9000115461E4637F0060219
:101C10000DD02A463346FEF7B2FB7F1E04EBC70306
:101C2000D3E90023FEF704FB37F00602F1D1022FBF
:101C300025D0042F13D0062F18BFBDE8F0812A4607
:101C40003346FEF79CFBD4E90A23FEF7F1FA2A4655
:101C50003346FEF794FBD4E90823FEF7E9FA2A4657
:101C60003346FEF78CFBD4E90623FEF7E1FA2A4659
:101C70003346FEF784FBD4E90423FEF7D9FA2A465B
:101C80003346FEF77CFBD4E90223FEF7D1FA2A465D
:101C90003346FEF774FBD4E90023BDE8F041FEF7BC
:101CA000C7BA00000022134610460149FEF7D9BB0F
:101CB0000000F03FFEF7BCBA002213461046114662
:101CC000FEF7CFBB40F2013200204FF0E041FEF7BB
:101CD000AABD0000024A00201107FEF7A4BD0000C3
:101CE00001FDFFFF02E008C8121F08C1002AFAD157
:101CF00070477047002001E001C1121F002AFBD18C
:101D0000704700000149086070470000240000206F
:101D10004FF0E021096921F004014FF0E022116148
:101D2000C21700EB5272C2F3C702074B1A70194672
:101D3000097801EB4102C2EBC1114FF6FF7202EAD2
:101D4000C101024A118070470000002002000020FB
:101D500001460D4A12884A434FF0E0235A6100229F
:101D60009A6101221A6100BF4FF0E022106900F071
:101D700001021AB100F48032002AF5D000224FF09F
:101D8000E0231A619A617047020000200920FFF7E2
:101D900013FB4820FFF7BCFFFEF7F8FDFFF78CFAB6
:101DA000FFF7FAF800F016FDFFF74EFB4FF49670C0
:101DB00005490860486006E00448007818B1FFF75C
:101DC0006DFEFFF793FAF7E70C00002008000020F3
:101DD0002DE9F04D16460F4694B01C4621F0004107
:101DE00023F00042002814BF4FF0010C4FF0000C0C
:101DF0000CEB470CFE4B0CEB03054FEA630C6545FF
:101E00002BD3350018BF012505EB44051D44F94BC4
:101E10009D4222D3F84B52EA060C02D09F4205D1D4
:101E200048B914B000201946BDE8F08D002808BF5D
:101E30004FF0000C01D04FF0010C0CEB470313F5F1
:101E4000001F0AD8002E14BF4FF0010C4FF0000CF9
:101E50000CEB440313F5001F07D914B03246234698
:101E60003946BDE8F04DFFF725BFDFF890834FF00E
:101E7000000A002FB8BF424523DAE14B9A42A8BFBF
:101E80004FF0020A1DDADC4B93421ADCDD4B03EB08
:101E90002253142B08DDC3F1340C26FA0CF303FA99
:101EA0000CFCB4450DD108E05EB9C3F1140C22FA64
:101EB0000CF303FA0CFC944503D103F00103C3F1C6
:101EC000020A51EA00031BD1002C19DA002F18BFB7
:101ED000BAF1020F02D0BAF1010F07D00220FFF7CA
:101EE00011FF14B0BDE8F04DFFF7DCBE0220FFF794
:101EF00009FFFFF7D7FE14B081F00041BDE8F08D77
:101F0000330070D1424525D107F1804212F580128D
:101F100001BF00280020B84914B008BFBDE8F08D0B
:101F2000B548884207DC002CA1BF1846214614B0F2
:101F3000BDE8F08D07E0002CBFBF184684F00041DB
:101F400014B0BDE8F08DB0497944D1E9000114B076
:101F5000BDE8F08DDFF8A0C262452AD1002C24DA5A
:101F600039B1414517D1002804BF002002461CD1D9
:101F700006E040B10220FFF7C5FEFFF7A3FE0A46C8
:101F8000394600F0D7BA9D4A394614B0002062F3B2
:101F90001E01BDE8F08D08DA14B03B46BDE8F04DF7
:101FA000024600206146FEF75CBA14B03946BDE82F
:101FB000F08D414517DAB4F1804F0CD0A4F10053F5
:101FC000B3F1FF530FD13B1E0DDB14B01946BDE832
:101FD000F04D00F0D9BB3B4614B00246BDE8F04DD1
:101FE0001946FEF7CCB9050027F000433AD1E1B11C
:101FF000414537D1002F06DD002CA1BF002041460E
:1020000014B0BDE8F08D002F01DD002C1FDB002F88
:1020100016DA002C14DBBAF1010F4FF0000014BFE8
:1020200076497A4914B0BDE8F08DBAF1020F18BFB5
:10203000002F0CD0BAF1010F09D1002F07DA0BE005
:10204000002FB8BF002C0DDABAF1010F04D0002028
:1020500014B00146BDE8F08D14B000204FF00041EF
:10206000BDE8F08D4FF0010808EBE77CCDF814C017
:102070005CEA0A0C0DD0DFF898C162457EDDDFF81E
:1020800094C1654B624512DD8B420ADB002C18DBE4
:1020900023E00120FFF736FE14B0BDE8F04DFFF756
:1020A0000BBE554A8A4202DC002C0ADC15E099423C
:1020B00002DA002C11DA04E04F4B994219DD002CB2
:1020C0000BDD0220FFF71EFEFFF7FCFD4B4A14B0AC
:1020D00061F31E021146BDE8F08D0220FFF712FEEB
:1020E000FFF7F8FD444A14B061F31E021146BDE843
:1020F000F08D00223946FEF73CF907460D466FF099
:102100000102FEF790FB4FF05532444BFEF734F9D5
:102110003A462B46FEF733F90022414BFEF72CF9E5
:1021200080468B463A462B4610461946FEF727F95D
:1021300042465B46FEF723F988460E904FF0C042B8
:10214000384B38462946FEF71AF983460091364A3D
:10215000344B41460E98FEF712F980460191334AFE
:10216000334B38462946FEF70AF94246019BFEF7F3
:1021700000F90D4602460B460C9000E011E058466F
:102180000099FEF755F8002788465A463846009BC6
:10219000FEF7EFF82B460C9AFEF7EEF8024600F039
:1021A00079B90020B1F5801F07DA35222846194693
:1021B000FEF739FB05466FF0340000EB2150A0F22A
:1021C000FF300190C1F3130040F07F6141F04051B6
:1021D000029118498842D8BF4FF0000B35DD1649EF
:1021E0008142C8BF4FF0010B2FDC4FF0000B25E000
:1021F000FFFF1F00FFFF0F000000F03F0000F07F17
:102200000000404301FCFFFF5C0900000000F0FFFC
:102210000000E0410000F043FFFFEF3F5555D53F80
:102220000000E03F4715F73FFE822B6544DF5DF875
:102230000BAE543E8E9803007AB60B000198401CFA
:1022400001900298A0F580100290FF48029978440E
:1022500000EBCB000991D0E9002328460B931292A2
:10226000FEF787F800910A9028460B9B129A09996D
:10227000FDF7DEFF02460B460020F449FEF7F1F8B9
:10228000CDE90C010B46024600990A98FEF777F853
:102290000690EF488846002778440299006810901D
:1022A0004FF0005040EA610000EB8B4000F5002148
:1022B00002910B9B129A1098FEF75BF82A46099B35
:1022C000FEF75AF83A464346FEF759F8089112903D
:1022D00038464146029B109AFEF751F8009B0A9A35
:1022E000FEF74AF8089B129AFEF743F8DDE90C2343
:1022F000FEF745F80B91069A129043461046194690
:10230000FEF73DF805460246D2480B460A910621E3
:102310007844FFF771FC0A9B2A4608910290104608
:102320001946FEF72CF8089B029AFEF728F8054696
:102330000991434638461946069AFDF779FF0B9BEB
:10234000129AFEF71CF82A46099BFDF771FFCDE9AA
:1023500008013A46434610461946FEF710F80A911E
:102360000022BD4B0090FDF763FFDDE90823FDF778
:102370005FFF0D463A46B84B3846FDF7FAFF0A9B19
:10238000009AFDF7F6FFDDE90823FDF7F5FFCDE93B
:1023900008013A462B4610464146FDF7F0FF0091F2
:1023A0000A90DDE908014346069AFDF7E8FF06902A
:1023B00088462B463A460B991298FDF7E0FF4346B4
:1023C000069AFDF735FF80460B4602460D910099AF
:1023D0000A98FDF72DFF00200F460546009B0A9A3C
:1023E000FDF7C7FF42460D9BFDF7C6FF88460E90DE
:1023F0004FF06042994B28463946FDF7C0FF0291E5
:102400000090974A954B41460E98FDF7B8FF8046DD
:102410000391944A944B28463946FDF7B0FF424653
:10242000039BFDF705FF914A7A4402EBCB03D3E906
:102430000023FDF7FDFE054607910198FEF78EF893
:102440000C9003912A46079B02990098FDF7F0FE35
:10245000874A7A4402EBCB03D3E9002393460193E6
:10246000FDF7E6FE039B0C9AFDF7E2FE0027884687
:102470003846039B0C9AFDF77CFF5A46019BFDF7FB
:1024800078FF029B009AFDF774FF2A46079BFDF731
:1024900073FF02460020069005986C4DAAF10103D7
:1024A000184301D1734D069000200B46049030462E
:1024B0002146FDF764FF82468B4623463046194687
:1024C000049AFDF756FF3A464346FDF758FF524639
:1024D0005B46FDF7ADFE06468A463A464346214630
:1024E0000498FDF74CFF04460F4632465346FDF76D
:1024F0009FFE614A8B46914221DBABEB020353EA1C
:10250000000210D122463B46FDF733FF804603917F
:102510005A4A5B4B30465146FDF78AFE4246039BC2
:10252000FEF798F927D20220FFF7ECFBFFF7CAFB72
:102530000A46294614B062F31E01BDE8F08D514BE6
:102540002BF000429A4216D34F4A0BEB020353EA98
:10255000000208D122463B46FDF70BFF32465346A8
:10256000FEF778F907D80220FFF7CCFBFFF7B2FBA4
:102570000A462946DEE72BF000404449444A01EB75
:1025800020514FF00008824223DA481C4FF480119A
:1025900021FA00F058443F4AC0F30A517A443E4BB6
:1025A000A1F2FF31CB4020EA0303C0F3130040F453
:1025B000801CC1F1140012682CFA00F8BBF1000F66
:1025C000B8BFC8F1000820463946FDF7D2FE0446E0
:1025D0000F4622463B4630465146FDF729FE4FF056
:1025E000000B5A462D4B58460391FDF7C8FE00914B
:1025F0000A902B4A2B4B58460399FDF7C0FE0491D5
:10260000029022463B4658460399FDF7B2FE3246F9
:102610005346FDF7B1FE244A244BFDF7B0FE049B60
:10262000029AFDF705FE07468A46009B0A9AFDF7C7
:10263000FFFD04460E46009B0A9AFDF79AFE3A46B5
:102640005346FDF799FE33E0CE0500000000F03F51
:102650000C0600003C0500000000084009C7EE3FE2
:10266000FD033ADCF5015B14E02F3EBE14040000CC
:10267000DA0300000000F0BF00009040FE822B65EE
:102680004715973C00CC904000346F3F01FCFFFFA2
:102690000000E03F08030000FFFF0F00432EE63F6D
:1026A000396CA80C615C20BEEF39FAFE422EE63F81
:1026B0000746224633460F9110461946FDF75FFE46
:1026C000834602462E488A460B4605217844FFF78A
:1026D00093FA5A465346FDF752FE22463346FDF71B
:1026E0004BFE82468B463A46204631460F9BFDF70D
:1026F00046FE3A460F9BFDF79BFD0F460A900022CF
:102700004FF0804350465946FDF733FE0391009049
:1027100052465B4620463146FDF731FE039B009A48
:10272000FDF79FFE3B460A9AFDF723FE22463346FD
:10273000FDF71FFE0022134BFDF71EFE0E4604465A
:1027400001EB08510815002810DC424620463146AE
:10275000FEF769F8FFF73CFA042808BFFFF7BAFA5A
:10276000424620463146FEF75EF8044606980B4680
:1027700014B022462946BDE8F04DFDF700BE00002A
:10278000B00100000000F03F2DE9F04106460F4681
:10279000FEF78AF804000D4618BF0120284320F0F8
:1027A0000040C0F17F6000F1E040C00F0ED0301C4F
:1027B00018BF0120384320F00040C0F17F6000F1D5
:1027C000E040C00F04BF0120FFF79CFA20462946D5
:1027D000BDE8F0813EB50DA207CA8DE807000024D0
:1027E00005E01DF80400FEF793FF601CC4B20B2C3B
:1027F000F7DD00BF084800780028FBD04FF47A705E
:10280000FFF7A6FAFFF74AF93EBD000001100028C5
:102810000001020004A1BB0008000020000000002D
:10282000000000000000F03F000000000000F83F42
:1028300000000000000000000000004003B8E23F7C
:10284000000000000000000006D0CF43EBFD4C3E2E
:10285000033333333333E33FFFAB6FDBB66DDB3F23
:102860004D268F515555D53F01411DA96074D13F6B
:1028700065DBC9934A86CD3FEF4E454A287ECA3F65
:102880003E5555555555C53F93BDBE166CC166BFE7
:102890002CDE25AF6A56113FF16BD2C541BDBBBEE0
:1028A000D0A4BE726937663E000000000000000040
:1028B000D02800080000002028000000E41C0008C8
:1028C000F828000828000020E0050000F41C00089B
:1028D00000000000000000000000000000000000F8
:1028E00000000000000000000000000000000000E8
:0828F0000000000000000000E0
:04000005080000ED02
:00000001FF
